{
  "contractName": "EhsanAdmins",
  "abi": [
    {
      "inputs": [],
      "payable": false,
      "stateMutability": "nonpayable",
      "type": "constructor"
    },
    {
      "anonymous": false,
      "inputs": [
        {
          "indexed": true,
          "internalType": "address",
          "name": "account",
          "type": "address"
        }
      ],
      "name": "EhsanAdminAdded",
      "type": "event"
    },
    {
      "anonymous": false,
      "inputs": [
        {
          "indexed": true,
          "internalType": "address",
          "name": "account",
          "type": "address"
        }
      ],
      "name": "EhsanAdminRemoved",
      "type": "event"
    },
    {
      "constant": true,
      "inputs": [
        {
          "internalType": "address",
          "name": "account",
          "type": "address"
        }
      ],
      "name": "isEhsanAdmin",
      "outputs": [
        {
          "internalType": "bool",
          "name": "",
          "type": "bool"
        }
      ],
      "payable": false,
      "stateMutability": "view",
      "type": "function"
    },
    {
      "constant": false,
      "inputs": [
        {
          "internalType": "address",
          "name": "account",
          "type": "address"
        }
      ],
      "name": "addEhsanAdmin",
      "outputs": [
        {
          "internalType": "bool",
          "name": "",
          "type": "bool"
        }
      ],
      "payable": false,
      "stateMutability": "nonpayable",
      "type": "function"
    },
    {
      "constant": false,
      "inputs": [],
      "name": "renounceEhsanAdmin",
      "outputs": [],
      "payable": false,
      "stateMutability": "nonpayable",
      "type": "function"
    }
  ],
  "bytecode": "0x608060405234801561001057600080fd5b506100203361002560201b60201c565b610242565b61003d81600061008360201b6103341790919060201c565b8073ffffffffffffffffffffffffffffffffffffffff167fe000efa70d205cbeed2098bc6b1c9a985fdb926150191d085a7614109abcdbb260405160405180910390a250565b610093828261016460201b60201c565b15610106576040517f08c379a000000000000000000000000000000000000000000000000000000000815260040180806020018281038252601f8152602001807f526f6c65733a206163636f756e7420616c72656164792068617320726f6c650081525060200191505060405180910390fd5b60018260000160008373ffffffffffffffffffffffffffffffffffffffff1673ffffffffffffffffffffffffffffffffffffffff16815260200190815260200160002060006101000a81548160ff0219169083151502179055505050565b60008073ffffffffffffffffffffffffffffffffffffffff168273ffffffffffffffffffffffffffffffffffffffff1614156101eb576040517f08c379a00000000000000000000000000000000000000000000000000000000081526004018080602001828103825260228152602001806107b66022913960400191505060405180910390fd5b8260000160008373ffffffffffffffffffffffffffffffffffffffff1673ffffffffffffffffffffffffffffffffffffffff16815260200190815260200160002060009054906101000a900460ff16905092915050565b610565806102516000396000f3fe608060405234801561001057600080fd5b50600436106100415760003560e01c80635ef952f1146100465780638a11a077146100a2578063a1225864146100fe575b600080fd5b6100886004803603602081101561005c57600080fd5b81019080803573ffffffffffffffffffffffffffffffffffffffff169060200190929190505050610108565b604051808215151515815260200191505060405180910390f35b6100e4600480360360208110156100b857600080fd5b81019080803573ffffffffffffffffffffffffffffffffffffffff169060200190929190505050610125565b604051808215151515815260200191505060405180910390f35b610106610197565b005b600061011e8260006101a290919063ffffffff16565b9050919050565b600061013033610108565b610185576040517f08c379a00000000000000000000000000000000000000000000000000000000081526004018080602001828103825260218152602001806105106021913960400191505060405180910390fd5b61018e82610280565b60019050919050565b6101a0336102da565b565b60008073ffffffffffffffffffffffffffffffffffffffff168273ffffffffffffffffffffffffffffffffffffffff161415610229576040517f08c379a00000000000000000000000000000000000000000000000000000000081526004018080602001828103825260228152602001806104ee6022913960400191505060405180910390fd5b8260000160008373ffffffffffffffffffffffffffffffffffffffff1673ffffffffffffffffffffffffffffffffffffffff16815260200190815260200160002060009054906101000a900460ff16905092915050565b61029481600061033490919063ffffffff16565b8073ffffffffffffffffffffffffffffffffffffffff167fe000efa70d205cbeed2098bc6b1c9a985fdb926150191d085a7614109abcdbb260405160405180910390a250565b6102ee81600061040f90919063ffffffff16565b8073ffffffffffffffffffffffffffffffffffffffff167feebeaa69279e6ca2579f5bcc00ab81d2446698c64b0b6b031779f1d334a1ae1460405160405180910390a250565b61033e82826101a2565b156103b1576040517f08c379a000000000000000000000000000000000000000000000000000000000815260040180806020018281038252601f8152602001807f526f6c65733a206163636f756e7420616c72656164792068617320726f6c650081525060200191505060405180910390fd5b60018260000160008373ffffffffffffffffffffffffffffffffffffffff1673ffffffffffffffffffffffffffffffffffffffff16815260200190815260200160002060006101000a81548160ff0219169083151502179055505050565b61041982826101a2565b61046e576040517f08c379a00000000000000000000000000000000000000000000000000000000081526004018080602001828103825260218152602001806104cd6021913960400191505060405180910390fd5b60008260000160008373ffffffffffffffffffffffffffffffffffffffff1673ffffffffffffffffffffffffffffffffffffffff16815260200190815260200160002060006101000a81548160ff021916908315150217905550505056fe526f6c65733a206163636f756e7420646f6573206e6f74206861766520726f6c65526f6c65733a206163636f756e7420697320746865207a65726f20616464726573734f6e6c792061646d696e2063616e2063616c6c20746869732066756e6374696f6ea265627a7a723158205becc3828e510d6f1f84cfbbb5f26f596c79af021e26c971aa65a0da954ef8dc64736f6c634300050c0032526f6c65733a206163636f756e7420697320746865207a65726f2061646472657373",
  "source": "pragma solidity ^0.5.0;\n\nimport \"openzeppelin-solidity/contracts/access/Roles.sol\";\n\ncontract EhsanAdmins {\n  using Roles for Roles.Role;\n\n  event EhsanAdminAdded(address indexed account);\n  event EhsanAdminRemoved(address indexed account);\n\n  Roles.Role private EhsanAdmin;\n\n  constructor() public { \n    _addEhsanAdmin(msg.sender);\n  }\n\n  modifier onlyEhsanAdmin() {\n    require(isEhsanAdmin(msg.sender),\"Only admin can call this function\");\n    _;\n  }\n\n  function isEhsanAdmin(address account) public view returns (bool) {\n    return EhsanAdmin.has(account);\n  }\n\n  function addEhsanAdmin(address account) public onlyEhsanAdmin   returns (bool){\n    _addEhsanAdmin(account);\n    return true;\n  }\n\n  function renounceEhsanAdmin() public {\n    _removeEhsanAdmin(msg.sender);\n  }\n\n  function _addEhsanAdmin(address account) internal {\n    EhsanAdmin.add(account);\n    emit EhsanAdminAdded(account);\n  }\n\n  function _removeEhsanAdmin(address account) internal {\n    EhsanAdmin.remove(account);\n    emit EhsanAdminRemoved(account);\n  }\n}\n",
  "sourcePath": "/home/youssef/Desktop/Ehsan/contracts/EhsanAdmins.sol",
  "compiler": {
    "name": "solc",
    "version": "0.5.12+commit.7709ece9.Emscripten.clang"
  },
  "schemaVersion": "3.0.19",
  "updatedAt": "2019-12-07T19:42:04.508Z",
  "devdoc": {
    "methods": {}
  },
  "userdoc": {
    "methods": {}
  }
}