{
  "contractName": "Registration",
  "abi": [
    {
      "inputs": [
        {
          "internalType": "contract EhsanAdmins",
          "name": "_ehsanAdmin",
          "type": "address"
        }
      ],
      "payable": false,
      "stateMutability": "nonpayable",
      "type": "constructor"
    },
    {
      "anonymous": false,
      "inputs": [
        {
          "indexed": false,
          "internalType": "uint256",
          "name": "timeStamp",
          "type": "uint256"
        },
        {
          "indexed": false,
          "internalType": "address",
          "name": "sender",
          "type": "address"
        },
        {
          "indexed": false,
          "internalType": "enum Registration.Authorization",
          "name": "status",
          "type": "uint8"
        },
        {
          "indexed": false,
          "internalType": "address",
          "name": "orgAddress",
          "type": "address"
        }
      ],
      "name": "AdminHandleOrgRequest",
      "type": "event"
    },
    {
      "anonymous": false,
      "inputs": [
        {
          "indexed": false,
          "internalType": "uint256",
          "name": "timeStamp",
          "type": "uint256"
        },
        {
          "indexed": false,
          "internalType": "address",
          "name": "sender",
          "type": "address"
        }
      ],
      "name": "OrgJoinRequest",
      "type": "event"
    },
    {
      "constant": true,
      "inputs": [],
      "name": "Admins",
      "outputs": [
        {
          "internalType": "contract EhsanAdmins",
          "name": "",
          "type": "address"
        }
      ],
      "payable": false,
      "stateMutability": "view",
      "type": "function"
    },
    {
      "constant": false,
      "inputs": [
        {
          "internalType": "string",
          "name": "_license",
          "type": "string"
        },
        {
          "internalType": "string",
          "name": "_auditReport",
          "type": "string"
        },
        {
          "internalType": "string",
          "name": "_passport",
          "type": "string"
        },
        {
          "internalType": "string",
          "name": "_name",
          "type": "string"
        },
        {
          "internalType": "string",
          "name": "_bankAccount",
          "type": "string"
        },
        {
          "internalType": "address",
          "name": "_cryptoAddress",
          "type": "address"
        }
      ],
      "name": "requestToApprove",
      "outputs": [
        {
          "internalType": "bool",
          "name": "",
          "type": "bool"
        }
      ],
      "payable": false,
      "stateMutability": "nonpayable",
      "type": "function"
    },
    {
      "constant": false,
      "inputs": [
        {
          "internalType": "address",
          "name": "orgAddress",
          "type": "address"
        }
      ],
      "name": "approveChrtyOrg",
      "outputs": [
        {
          "internalType": "bool",
          "name": "",
          "type": "bool"
        }
      ],
      "payable": false,
      "stateMutability": "nonpayable",
      "type": "function"
    },
    {
      "constant": false,
      "inputs": [
        {
          "internalType": "address",
          "name": "orgAddress",
          "type": "address"
        }
      ],
      "name": "rejectChrtyOrg",
      "outputs": [
        {
          "internalType": "bool",
          "name": "",
          "type": "bool"
        }
      ],
      "payable": false,
      "stateMutability": "nonpayable",
      "type": "function"
    },
    {
      "constant": false,
      "inputs": [
        {
          "internalType": "address",
          "name": "orgAddress",
          "type": "address"
        }
      ],
      "name": "banChrtyOrg",
      "outputs": [
        {
          "internalType": "bool",
          "name": "",
          "type": "bool"
        }
      ],
      "payable": false,
      "stateMutability": "nonpayable",
      "type": "function"
    },
    {
      "constant": true,
      "inputs": [
        {
          "internalType": "address",
          "name": "orgAddress",
          "type": "address"
        }
      ],
      "name": "getOrgRequest",
      "outputs": [
        {
          "internalType": "string",
          "name": "",
          "type": "string"
        },
        {
          "internalType": "string",
          "name": "",
          "type": "string"
        },
        {
          "internalType": "string",
          "name": "",
          "type": "string"
        },
        {
          "internalType": "string",
          "name": "",
          "type": "string"
        },
        {
          "internalType": "string",
          "name": "",
          "type": "string"
        },
        {
          "internalType": "enum Registration.Authorization",
          "name": "",
          "type": "uint8"
        },
        {
          "internalType": "address",
          "name": "",
          "type": "address"
        }
      ],
      "payable": false,
      "stateMutability": "view",
      "type": "function"
    },
    {
      "constant": true,
      "inputs": [
        {
          "internalType": "address",
          "name": "orgAddress",
          "type": "address"
        }
      ],
      "name": "getOrgAccount",
      "outputs": [
        {
          "internalType": "string",
          "name": "",
          "type": "string"
        },
        {
          "internalType": "string",
          "name": "",
          "type": "string"
        },
        {
          "internalType": "address",
          "name": "",
          "type": "address"
        }
      ],
      "payable": false,
      "stateMutability": "view",
      "type": "function"
    },
    {
      "constant": true,
      "inputs": [
        {
          "internalType": "address",
          "name": "orgAddress",
          "type": "address"
        }
      ],
      "name": "getOrgAuthority",
      "outputs": [
        {
          "internalType": "enum Registration.Authorization",
          "name": "",
          "type": "uint8"
        }
      ],
      "payable": false,
      "stateMutability": "view",
      "type": "function"
    },
    {
      "constant": true,
      "inputs": [
        {
          "internalType": "address",
          "name": "orgAddress",
          "type": "address"
        }
      ],
      "name": "isOrg",
      "outputs": [
        {
          "internalType": "bool",
          "name": "",
          "type": "bool"
        }
      ],
      "payable": false,
      "stateMutability": "view",
      "type": "function"
    }
  ],
  "bytecode": "0x608060405234801561001057600080fd5b506040516120eb3803806120eb8339818101604052602081101561003357600080fd5b8101908080519060200190929190505050806000806101000a81548173ffffffffffffffffffffffffffffffffffffffff021916908373ffffffffffffffffffffffffffffffffffffffff16021790555050612057806100946000396000f3fe608060405234801561001057600080fd5b50600436106100935760003560e01c80633384c60e116100665780633384c60e1461050557806382f62a3b146105615780639de96816146105bd578063e465354314610872578063f89729fe146108bc57610093565b806319f4dea8146100985780631abe751f146100f457806325034e031461015a57806331846404146104a9575b600080fd5b6100da600480360360208110156100ae57600080fd5b81019080803573ffffffffffffffffffffffffffffffffffffffff169060200190929190505050610a18565b604051808215151515815260200191505060405180910390f35b6101366004803603602081101561010a57600080fd5b81019080803573ffffffffffffffffffffffffffffffffffffffff169060200190929190505050610a8a565b6040518082600381111561014657fe5b60ff16815260200191505060405180910390f35b61048f600480360360c081101561017057600080fd5b810190808035906020019064010000000081111561018d57600080fd5b82018360208201111561019f57600080fd5b803590602001918460018302840111640100000000831117156101c157600080fd5b91908080601f016020809104026020016040519081016040528093929190818152602001838380828437600081840152601f19601f8201169050808301925050505050505091929192908035906020019064010000000081111561022457600080fd5b82018360208201111561023657600080fd5b8035906020019184600183028401116401000000008311171561025857600080fd5b91908080601f016020809104026020016040519081016040528093929190818152602001838380828437600081840152601f19601f820116905080830192505050505050509192919290803590602001906401000000008111156102bb57600080fd5b8201836020820111156102cd57600080fd5b803590602001918460018302840111640100000000831117156102ef57600080fd5b91908080601f016020809104026020016040519081016040528093929190818152602001838380828437600081840152601f19601f8201169050808301925050505050505091929192908035906020019064010000000081111561035257600080fd5b82018360208201111561036457600080fd5b8035906020019184600183028401116401000000008311171561038657600080fd5b91908080601f016020809104026020016040519081016040528093929190818152602001838380828437600081840152601f19601f820116905080830192505050505050509192919290803590602001906401000000008111156103e957600080fd5b8201836020820111156103fb57600080fd5b8035906020019184600183028401116401000000008311171561041d57600080fd5b91908080601f016020809104026020016040519081016040528093929190818152602001838380828437600081840152601f19601f820116905080830192505050505050509192919290803573ffffffffffffffffffffffffffffffffffffffff169060200190929190505050610ae3565b604051808215151515815260200191505060405180910390f35b6104eb600480360360208110156104bf57600080fd5b81019080803573ffffffffffffffffffffffffffffffffffffffff169060200190929190505050610e4d565b604051808215151515815260200191505060405180910390f35b6105476004803603602081101561051b57600080fd5b81019080803573ffffffffffffffffffffffffffffffffffffffff1690602001909291905050506110ed565b604051808215151515815260200191505060405180910390f35b6105a36004803603602081101561057757600080fd5b81019080803573ffffffffffffffffffffffffffffffffffffffff16906020019092919050505061138e565b604051808215151515815260200191505060405180910390f35b6105ff600480360360208110156105d357600080fd5b81019080803573ffffffffffffffffffffffffffffffffffffffff1690602001909291905050506116ab565b60405180806020018060200180602001806020018060200188600381111561062357fe5b60ff1681526020018773ffffffffffffffffffffffffffffffffffffffff1673ffffffffffffffffffffffffffffffffffffffff16815260200186810386528d818151815260200191508051906020019080838360005b8381101561069557808201518184015260208101905061067a565b50505050905090810190601f1680156106c25780820380516001836020036101000a031916815260200191505b5086810385528c818151815260200191508051906020019080838360005b838110156106fb5780820151818401526020810190506106e0565b50505050905090810190601f1680156107285780820380516001836020036101000a031916815260200191505b5086810384528b818151815260200191508051906020019080838360005b83811015610761578082015181840152602081019050610746565b50505050905090810190601f16801561078e5780820380516001836020036101000a031916815260200191505b5086810383528a818151815260200191508051906020019080838360005b838110156107c75780820151818401526020810190506107ac565b50505050905090810190601f1680156107f45780820380516001836020036101000a031916815260200191505b50868103825289818151815260200191508051906020019080838360005b8381101561082d578082015181840152602081019050610812565b50505050905090810190601f16801561085a5780820380516001836020036101000a031916815260200191505b509c5050505050505050505050505060405180910390f35b61087a611d06565b604051808273ffffffffffffffffffffffffffffffffffffffff1673ffffffffffffffffffffffffffffffffffffffff16815260200191505060405180910390f35b6108fe600480360360208110156108d257600080fd5b81019080803573ffffffffffffffffffffffffffffffffffffffff169060200190929190505050611d2b565b6040518080602001806020018473ffffffffffffffffffffffffffffffffffffffff1673ffffffffffffffffffffffffffffffffffffffff168152602001838103835286818151815260200191508051906020019080838360005b83811015610974578082015181840152602081019050610959565b50505050905090810190601f1680156109a15780820380516001836020036101000a031916815260200191505b50838103825285818151815260200191508051906020019080838360005b838110156109da5780820151818401526020810190506109bf565b50505050905090810190601f168015610a075780820380516001836020036101000a031916815260200191505b509550505050505060405180910390f35b600060026003811115610a2757fe5b600160008473ffffffffffffffffffffffffffffffffffffffff1673ffffffffffffffffffffffffffffffffffffffff16815260200190815260200160002060050160149054906101000a900460ff166003811115610a8257fe5b149050919050565b6000600160008373ffffffffffffffffffffffffffffffffffffffff1673ffffffffffffffffffffffffffffffffffffffff16815260200190815260200160002060050160149054906101000a900460ff169050919050565b6000600380811115610af157fe5b600160003373ffffffffffffffffffffffffffffffffffffffff1673ffffffffffffffffffffffffffffffffffffffff16815260200190815260200160002060050160149054906101000a900460ff166003811115610b4c57fe5b1415610bc0576040517f08c379a00000000000000000000000000000000000000000000000000000000081526004018080602001828103825260168152602001807f4f7267616e697a6174696f6e2069732062616e6e65640000000000000000000081525060200191505060405180910390fd5b610bc933610a18565b15610c3c576040517f08c379a00000000000000000000000000000000000000000000000000000000081526004018080602001828103825260178152602001807f4f726720697320616c726561647920617070726f76656400000000000000000081525060200191505060405180910390fd5b6040518060e001604052808881526020018781526020018681526020018581526020018481526020018373ffffffffffffffffffffffffffffffffffffffff16815260200160006003811115610c8e57fe5b815250600160003373ffffffffffffffffffffffffffffffffffffffff1673ffffffffffffffffffffffffffffffffffffffff1681526020019081526020016000206000820151816000019080519060200190610cec929190611f5c565b506020820151816001019080519060200190610d09929190611f5c565b506040820151816002019080519060200190610d26929190611f5c565b506060820151816003019080519060200190610d43929190611f5c565b506080820151816004019080519060200190610d60929190611f5c565b5060a08201518160050160006101000a81548173ffffffffffffffffffffffffffffffffffffffff021916908373ffffffffffffffffffffffffffffffffffffffff16021790555060c08201518160050160146101000a81548160ff02191690836003811115610dcc57fe5b02179055509050507f4e9c8cc56859b1a89bdc440e449c4a4cbf899909ac799ff4533544cd378e09e74233604051808381526020018273ffffffffffffffffffffffffffffffffffffffff1673ffffffffffffffffffffffffffffffffffffffff1681526020019250505060405180910390a1600190509695505050505050565b60008060009054906101000a900473ffffffffffffffffffffffffffffffffffffffff1673ffffffffffffffffffffffffffffffffffffffff16635ef952f1336040518263ffffffff1660e01b8152600401808273ffffffffffffffffffffffffffffffffffffffff1673ffffffffffffffffffffffffffffffffffffffff16815260200191505060206040518083038186803b158015610eed57600080fd5b505afa158015610f01573d6000803e3d6000fd5b505050506040513d6020811015610f1757600080fd5b8101908080519060200190929190505050610f7d576040517f08c379a00000000000000000000000000000000000000000000000000000000081526004018080602001828103825260218152602001806120026021913960400191505060405180910390fd5b60018060008473ffffffffffffffffffffffffffffffffffffffff1673ffffffffffffffffffffffffffffffffffffffff16815260200190815260200160002060050160146101000a81548160ff02191690836003811115610fdb57fe5b02179055507f2540333af568a8ff834f18254e4de316e405481fb0529c94727b41c3bc0f3e424233600160008673ffffffffffffffffffffffffffffffffffffffff1673ffffffffffffffffffffffffffffffffffffffff16815260200190815260200160002060050160149054906101000a900460ff1685604051808581526020018473ffffffffffffffffffffffffffffffffffffffff1673ffffffffffffffffffffffffffffffffffffffff16815260200183600381111561109c57fe5b60ff1681526020018273ffffffffffffffffffffffffffffffffffffffff1673ffffffffffffffffffffffffffffffffffffffff16815260200194505050505060405180910390a160019050919050565b60008060009054906101000a900473ffffffffffffffffffffffffffffffffffffffff1673ffffffffffffffffffffffffffffffffffffffff16635ef952f1336040518263ffffffff1660e01b8152600401808273ffffffffffffffffffffffffffffffffffffffff1673ffffffffffffffffffffffffffffffffffffffff16815260200191505060206040518083038186803b15801561118d57600080fd5b505afa1580156111a1573d6000803e3d6000fd5b505050506040513d60208110156111b757600080fd5b810190808051906020019092919050505061121d576040517f08c379a00000000000000000000000000000000000000000000000000000000081526004018080602001828103825260218152602001806120026021913960400191505060405180910390fd5b6003600160008473ffffffffffffffffffffffffffffffffffffffff1673ffffffffffffffffffffffffffffffffffffffff16815260200190815260200160002060050160146101000a81548160ff0219169083600381111561127c57fe5b02179055507f2540333af568a8ff834f18254e4de316e405481fb0529c94727b41c3bc0f3e424233600160008673ffffffffffffffffffffffffffffffffffffffff1673ffffffffffffffffffffffffffffffffffffffff16815260200190815260200160002060050160149054906101000a900460ff1685604051808581526020018473ffffffffffffffffffffffffffffffffffffffff1673ffffffffffffffffffffffffffffffffffffffff16815260200183600381111561133d57fe5b60ff1681526020018273ffffffffffffffffffffffffffffffffffffffff1673ffffffffffffffffffffffffffffffffffffffff16815260200194505050505060405180910390a160019050919050565b60008060009054906101000a900473ffffffffffffffffffffffffffffffffffffffff1673ffffffffffffffffffffffffffffffffffffffff16635ef952f1336040518263ffffffff1660e01b8152600401808273ffffffffffffffffffffffffffffffffffffffff1673ffffffffffffffffffffffffffffffffffffffff16815260200191505060206040518083038186803b15801561142e57600080fd5b505afa158015611442573d6000803e3d6000fd5b505050506040513d602081101561145857600080fd5b81019080805190602001909291905050506114be576040517f08c379a00000000000000000000000000000000000000000000000000000000081526004018080602001828103825260218152602001806120026021913960400191505060405180910390fd5b6114c733610a18565b1561153a576040517f08c379a00000000000000000000000000000000000000000000000000000000081526004018080602001828103825260178152602001807f4f726720697320616c726561647920617070726f76656400000000000000000081525060200191505060405180910390fd5b6002600160008473ffffffffffffffffffffffffffffffffffffffff1673ffffffffffffffffffffffffffffffffffffffff16815260200190815260200160002060050160146101000a81548160ff0219169083600381111561159957fe5b02179055507f2540333af568a8ff834f18254e4de316e405481fb0529c94727b41c3bc0f3e424233600160008673ffffffffffffffffffffffffffffffffffffffff1673ffffffffffffffffffffffffffffffffffffffff16815260200190815260200160002060050160149054906101000a900460ff1685604051808581526020018473ffffffffffffffffffffffffffffffffffffffff1673ffffffffffffffffffffffffffffffffffffffff16815260200183600381111561165a57fe5b60ff1681526020018273ffffffffffffffffffffffffffffffffffffffff1673ffffffffffffffffffffffffffffffffffffffff16815260200194505050505060405180910390a160019050919050565b60608060608060606000806000809054906101000a900473ffffffffffffffffffffffffffffffffffffffff1673ffffffffffffffffffffffffffffffffffffffff16635ef952f1336040518263ffffffff1660e01b8152600401808273ffffffffffffffffffffffffffffffffffffffff1673ffffffffffffffffffffffffffffffffffffffff16815260200191505060206040518083038186803b15801561175457600080fd5b505afa158015611768573d6000803e3d6000fd5b505050506040513d602081101561177e57600080fd5b81019080805190602001909291905050506117e4576040517f08c379a00000000000000000000000000000000000000000000000000000000081526004018080602001828103825260218152602001806120026021913960400191505060405180910390fd5b600160008973ffffffffffffffffffffffffffffffffffffffff1673ffffffffffffffffffffffffffffffffffffffff168152602001908152602001600020600001600160008a73ffffffffffffffffffffffffffffffffffffffff1673ffffffffffffffffffffffffffffffffffffffff168152602001908152602001600020600101600160008b73ffffffffffffffffffffffffffffffffffffffff1673ffffffffffffffffffffffffffffffffffffffff168152602001908152602001600020600201600160008c73ffffffffffffffffffffffffffffffffffffffff1673ffffffffffffffffffffffffffffffffffffffff168152602001908152602001600020600301600160008d73ffffffffffffffffffffffffffffffffffffffff1673ffffffffffffffffffffffffffffffffffffffff168152602001908152602001600020600401600160008e73ffffffffffffffffffffffffffffffffffffffff1673ffffffffffffffffffffffffffffffffffffffff16815260200190815260200160002060050160149054906101000a900460ff16600160008f73ffffffffffffffffffffffffffffffffffffffff1673ffffffffffffffffffffffffffffffffffffffff16815260200190815260200160002060050160009054906101000a900473ffffffffffffffffffffffffffffffffffffffff16868054600181600116156101000203166002900480601f016020809104026020016040519081016040528092919081815260200182805460018160011615610100020316600290048015611a765780601f10611a4b57610100808354040283529160200191611a76565b820191906000526020600020905b815481529060010190602001808311611a5957829003601f168201915b50505050509650858054600181600116156101000203166002900480601f016020809104026020016040519081016040528092919081815260200182805460018160011615610100020316600290048015611b125780601f10611ae757610100808354040283529160200191611b12565b820191906000526020600020905b815481529060010190602001808311611af557829003601f168201915b50505050509550848054600181600116156101000203166002900480601f016020809104026020016040519081016040528092919081815260200182805460018160011615610100020316600290048015611bae5780601f10611b8357610100808354040283529160200191611bae565b820191906000526020600020905b815481529060010190602001808311611b9157829003601f168201915b50505050509450838054600181600116156101000203166002900480601f016020809104026020016040519081016040528092919081815260200182805460018160011615610100020316600290048015611c4a5780601f10611c1f57610100808354040283529160200191611c4a565b820191906000526020600020905b815481529060010190602001808311611c2d57829003601f168201915b50505050509350828054600181600116156101000203166002900480601f016020809104026020016040519081016040528092919081815260200182805460018160011615610100020316600290048015611ce65780601f10611cbb57610100808354040283529160200191611ce6565b820191906000526020600020905b815481529060010190602001808311611cc957829003601f168201915b505050505092509650965096509650965096509650919395979092949650565b6000809054906101000a900473ffffffffffffffffffffffffffffffffffffffff1681565b6060806000600160008573ffffffffffffffffffffffffffffffffffffffff1673ffffffffffffffffffffffffffffffffffffffff168152602001908152602001600020600301600160008673ffffffffffffffffffffffffffffffffffffffff1673ffffffffffffffffffffffffffffffffffffffff168152602001908152602001600020600401600160008773ffffffffffffffffffffffffffffffffffffffff1673ffffffffffffffffffffffffffffffffffffffff16815260200190815260200160002060050160009054906101000a900473ffffffffffffffffffffffffffffffffffffffff16828054600181600116156101000203166002900480601f016020809104026020016040519081016040528092919081815260200182805460018160011615610100020316600290048015611eac5780601f10611e8157610100808354040283529160200191611eac565b820191906000526020600020905b815481529060010190602001808311611e8f57829003601f168201915b50505050509250818054600181600116156101000203166002900480601f016020809104026020016040519081016040528092919081815260200182805460018160011615610100020316600290048015611f485780601f10611f1d57610100808354040283529160200191611f48565b820191906000526020600020905b815481529060010190602001808311611f2b57829003601f168201915b505050505091509250925092509193909250565b828054600181600116156101000203166002900490600052602060002090601f016020900481019282601f10611f9d57805160ff1916838001178555611fcb565b82800160010185558215611fcb579182015b82811115611fca578251825591602001919060010190611faf565b5b509050611fd89190611fdc565b5090565b611ffe91905b80821115611ffa576000816000905550600101611fe2565b5090565b9056fe4f6e6c792061646d696e2063616e2063616c6c20746869732066756e6374696f6ea265627a7a72315820ebce8ec3a6e10a9e42bea7cba2c12504cd0bc487cd42c6a40a3af850426a9fe164736f6c634300050c0032",
  "source": "pragma solidity ^0.5.0;\nimport \"openzeppelin-solidity/contracts/math/SafeMath.sol\";\n\nimport \"./EhsanAdmins.sol\";\n\n/** this contract should manage all type of ChrtyOrgs */\n \ncontract Registration   {\n    enum Authorization {pending, rejected, approved, banned}\n    EhsanAdmins public Admins;\n    // CampaignFactory public factory;\n    \n    struct Organization {\n        string license;\n        string auditReport;\n        string passport;\n        string name;\n       // string location;\n       // string desc;\n        string bankAccount;\n        address cryptoAddress;\n        Authorization status;\n    }\n    \n    mapping(address => Organization) chrtyOrgs;\n    \n    event OrgJoinRequest(\n        uint timeStamp,\n        address sender\n    );\n        \n    event AdminHandleOrgRequest(\n        uint timeStamp,\n        address sender,\n        Authorization status,\n        address orgAddress\n    );\n        \n    constructor(EhsanAdmins _ehsanAdmin) public {\n        Admins = _ehsanAdmin;\n    }\n    \n    modifier onlyUnApprovedOrg(){\n        require(!isOrg(msg.sender),\"Org is already approved\");\n         _;\n    }\n    modifier onlyAdmin(){\n        require(Admins.isEhsanAdmin(msg.sender),\"Only admin can call this function\");\n         _;\n    }\n    modifier onlyUnbanned(){\n        require(chrtyOrgs[msg.sender].status != Authorization.banned,\"Organization is banned\");\n         _;\n    }\n    // modifier onlyApprovedOrg(address orgAddress){\n    //     require(chrtyOrgs[orgAddress].status == Authorization.approved)\n    //      _;\n    // }\n    \n    // function setCampaignFactoryContract(CampaignFactory _factory) public onlyAdmin returns (bool){\n    //     factory = _factory;\n    //     return true;\n    // }\n\n    // function createNewAccount() public returns (bool) {// address owner , Registration _registration ,TokenFactory _factory ,IERC20 _attaToken\n    //     address newUser = address(new UserWalletContract(msg.sender,Registration(address(this)),factory,attaToken));\n    //     users[msg.sender] = newUser;\n    //     return true;\n    // } \n    \n    function requestToApprove(\n        string memory _license,\n        string memory _auditReport,\n        string memory _passport,\n        string memory _name,\n        // string calldata _location,\n        // string calldata _desc,\n        string memory _bankAccount,\n        address _cryptoAddress) public onlyUnbanned onlyUnApprovedOrg returns(bool) {\n            chrtyOrgs[msg.sender] = Organization({\n                license: _license,\n                auditReport: _auditReport,\n                passport: _passport,\n                name: _name,\n                // location: _location,\n                // desc: _desc,\n                bankAccount: _bankAccount,\n                status: Authorization.pending,\n                cryptoAddress: _cryptoAddress});\n\n        emit OrgJoinRequest(now, msg.sender);\n        \n        return true;\n        }\n        \n    function approveChrtyOrg(address orgAddress) public onlyAdmin onlyUnApprovedOrg returns (bool) {\n       chrtyOrgs[orgAddress].status = Authorization.approved;\n       emit AdminHandleOrgRequest(now, msg.sender, chrtyOrgs[orgAddress].status, orgAddress);\n       return true;\n   }\n\n// TODO :  need to think in whether we have to manage org request on chain or off chain\n    function rejectChrtyOrg(address orgAddress) public onlyAdmin returns (bool) {\n       chrtyOrgs[orgAddress].status = Authorization.rejected;\n       emit AdminHandleOrgRequest(now, msg.sender, chrtyOrgs[orgAddress].status, orgAddress);\n       return true;\n   }\n   \n   function banChrtyOrg(address orgAddress) public onlyAdmin returns(bool){\n       chrtyOrgs[orgAddress].status = Authorization.banned;\n       emit AdminHandleOrgRequest(now, msg.sender, chrtyOrgs[orgAddress].status, orgAddress);\n       return true;\n   }\n   \n   function getOrgRequest(address orgAddress)\n   public view onlyAdmin returns(string memory,string memory,string memory, string memory,/* string memory, string memory,*/ string memory, Authorization, address){\n       return (\n           chrtyOrgs[orgAddress].license,\n           chrtyOrgs[orgAddress].auditReport,\n           chrtyOrgs[orgAddress].passport,\n           chrtyOrgs[orgAddress].name,\n           // chrtyOrgs[orgAddress].location,\n           // chrtyOrgs[orgAddress].desc,\n           chrtyOrgs[orgAddress].bankAccount,\n           chrtyOrgs[orgAddress].status,\n           chrtyOrgs[orgAddress].cryptoAddress\n        );\n   }\n   \n   function getOrgAccount(address orgAddress) public view returns(string memory/*,string memory,string memory*/,string memory, address) {\n       return(\n           chrtyOrgs[orgAddress].name,\n           // chrtyOrgs[orgAddress].location,\n           // chrtyOrgs[orgAddress].desc,\n           chrtyOrgs[orgAddress].bankAccount,\n           chrtyOrgs[orgAddress].cryptoAddress\n        );\n   }\n  \n   function getOrgAuthority(address orgAddress) public view returns(Authorization) {\n      return chrtyOrgs[orgAddress].status;\n   }\n   \n   function isOrg(address orgAddress) public view returns (bool){\n       return chrtyOrgs[orgAddress].status == Authorization.approved;\n   }\n}",
  "sourcePath": "/home/youssef/Desktop/Ehsan/contracts/Registration.sol",
  "compiler": {
    "name": "solc",
    "version": "0.5.12+commit.7709ece9.Emscripten.clang"
  },
  "schemaVersion": "3.0.19",
  "updatedAt": "2019-12-07T19:42:04.511Z",
  "devdoc": {
    "methods": {}
  },
  "userdoc": {
    "methods": {},
    "notice": "this contract should manage all type of ChrtyOrgs "
  }
}